:05000300344310100160
:10035900AD071FED600B7E6EEED3940040F21E8058
:01036900F79C
:01036A002270
:10036B00EF24B460082404700775CED02275CED16B
:01037B00225F
:10037C00C2B28FCFE5CD30E7FB75CD80D2B2AFCF17
:01038C00224E
:0E038D007F02120359C2B2D2B3C297D2B42279
:0C000E00C2B312037CE4FF12037CD2B3E7
:01001A0022C3
:02034600AE0502
:10034800C2B312037CAD07AF0612037CD2B3AF056C
:010358002282
:0602BC008B098A0A890B80
:1002C200C2B312037CAE07E4FDEDC3950C5017E4F4
:1002D200FF12037CAB09AA0AA90B8D82758300EF7A
:0A02E2001201FC0D80E3D2B3AF0659
:0102EC0022EF
:060258008B0E8A0F8910D5
:10025E00C2B312037CAE07E4FDEDC395115018AB8B
:10026E000E0510E510AA0F7002050F14F91201E326
:0B027E00FF12037C0D80E2D2B3AF063C
:010289002252
:10021E00C2B27BFF7A0079037511057F2A1202584C
:10022E007D017F211203467D017F221203467D2030
:10023E007F251203467D0A7F311203467D0F7F26EE
:0A024E001203467D0B7F20020346D9
:10028A00D2B27F051203597F0712000E8F20300663
:10029A0020C2B27B007A007924750C0A7F611202AF
:1002AA00BC7DFF7F27120346C2B37FE212037CD2D2
:0202BA00B3226D
:10030D00D3EF9400EE940040147D5A7C00ED1D70E7
:0D031D00011CED4C70F7EF1F70E61E80E331
:01032A0022B0
:0A03C100E4F523F521F5220203CB39
:10032B00758911D28ED2AFD2AB7F4C12036B1203F5
:0B033B008D7F4812036B12021E80FE33
:03001B0002017B64
:10017B00C0E0C0F0C083C082C0D075D000C000C04A
:10018B0001C002C003C004C005C006C007758D00C6
:10019B00758B0012028AE5262443601824E2601A4C
:1001AB0024FE600B24F06002801312039B800E125E
:1001BB0003C18009C2A9C2A080031203A8D007D033
:1001CB0006D005D004D003D002D001D000D0D0D0BF
:0801DB0082D083D0F0D0E032A5
:1002ED00E4FDFCC3ED9FEC9E5015E4FBFA0BBB0047
:0F02FD00010AEB64784A70F50DBD00010C80E436
:01030C0022CE
:0D039B00D290C291D2927F017E000202ED4D
:0D03A800C290C291C2927F017E000202ED60
:10001E0027E2E4E6E7E8EAEBECEDEEEFF0F1F2F3DF
:10002E00F3F4F5F5F6F6F7F7F8F8F9F9F9FAFAFA4E
:10003E00FBFBFBFBFCFCFCFFD9841982EB2E5E97CD
:10004E00A1B0A2946C3B06BB7012AE48D058D04AF9
:10005E00B51F84DE398AD82467ABE822568C010698
:10006E00070707080809090A0A0B0C0C0D0E0F10DA
:10007E0011121314151618191A1C1E1F21232528C8
:10008E002A2C2F3235020405070B0D0F181C2031B8
:10009E0042090310031203000300060006120309AF
:1000AE000306060E06100312031503170415011599
:1000BE00031006090310031203120306030B030EAB
:1000CE0003100312031A0319061A03190615031552
:1000DE00010E011701150117030B030E030B03137A
:0700EE0003120313031A03C0
:0A03CB00438911D28CD2AFD2A922CF
:03000B000200F5FB
:1000F500C0E0C083C082C0D075D000C006C007E58F
:100105001425E0249FF582E43400F583E493FF9001
:10011500001E93FEF58CEF90004593FFF58AEE6483
:10012500276006EFF46002B2A00512E51425E0246D
:100135009FF582E43400F583E49390006C93B51247
:10014500050513751200E51425E024A0F582E434B5
:1001550000F583E49390009393B5130D051475137F
:1001650000E514B42B03751400D007D006D0D0D009
:0601750082D083D0E032CD
:030000000203B543
:0C03B500787FE4F6D8FD75814402032B2C
:1001E300BB010689828A83E0225002E722BBFE021A
:0901F300E32289828A83E493224D
:1001FC00F8BB010DE58229F582E5833AF583E8F039
:10020C00225006E92582C8F622BBFE05E92582C8E4
:02021C00F222CC
:00000001FF
