:10005900E4F5D8F5E9F5F975D9028FEA8FFA75DA79
:0D00690042AF058FEB8FFB75DB42D2DE222C
:06003300D2847F017E0073
:10003900E4FDFCC3ED9FEC9E5015E4FBFA0BBB00FD
:0F004900010AEB64784A70F50DBD00010C80E4EC
:010058002285
:10000300D281C282C2831200337D287F2A12005913
:100013007F187E10120039D281D282D2831200332C
:100023007D327F381200597F707E1712003980D0DD
:0300000002007685
:0C007600787FE4F6D8FD75810B020003D2
:00000001FF
