:10009800D3EF9400EE940040147D727C00ED1D7047
:0D00A800011CED4C70F7EF1F70E61E80E3A9
:0100B5002228
:10003B0075A00FE5A0540F640F60287F057E00129A
:10004B000098E5A0540F640F6019E5A0540FFAEB6C
:10005B0044F0F5A0E5A054F0FBE5A054F0FFBFF091
:06006B00F88000EB2AFF03
:01007100226C
:1000030012003BEF1200720038BB0035BD002CBE5E
:10001300002FDB0032DD0029DE002FEB002FED0087
:100023002FEE0000003AC2B222C2B222D2B222C2E2
:08003300B222C2B222C2B222C5
:0500C20012000380FBA9
:030000000200B645
:0C00B600787FE4F6D8FD7581070200C2D7
:10007200D083D082F8E4937012740193700DA3A31D
:1000820093F8740193F5828883E473740293686031
:06009200EFA3A3A380DF31
:00000001FF
