:05000300344310100160
:020CBD00C1086C
:100C1900AD071FED600B7E6EEED3940040F21E808F
:010C2900F7D3
:010C2A0022A7
:100C2B00EF24B460082404700775CED02275CED1A2
:010C3B002296
:100C3C00C2B28FCFE5CD30E7FB75CD80D2B2AFCF4E
:010C4C002285
:0E0C4D007F02120C19C2B2D2B3C297D2B422E7
:0C000E00C2B3120C3CE4FF120C3CD2B355
:01001A0022C3
:020BE000AE0560
:100BE200C2B3120C3CAD07AF06120C3CD2B3AF0538
:010BF20022E0
:060AC0008B528A53895499
:100AC600C2B3120C3CAE07E4FDEDC395555017E4D6
:100AD600FF120C3CAB52AA53A9548D82758300EFCA
:0A0AE60012029C0D80E3D2B3AF06AC
:010AF00022E3
:060A5C008B528A538954FD
:100A6200C2B3120C3CAE07E4FDEDC395555018AB72
:100A7200520554E554AA537002055314F912028325
:0B0A8200FF120C3C0D80E2D2B3AF0667
:010A8D002246
:100A2200C2B27BFF7A0079037555057F2A120A5CF0
:100A32007D017F21120BE07D017F22120BE07D20E0
:100A42007F25120BE07D0A7F31120BE07D0F7F269E
:0A0A5200120BE07D0B7F20020BE089
:100A8E00D2B27F05120C197F0712000E8F2030068E
:100A9E0020C2B27B007A00792675550A7F61120A50
:100AAE00C07DFF7F27120BE0C2B37FE2120C3CD257
:020ABE00B32261
:100B8B00D3EF9400EE940040147D5A7C00ED1D7061
:0D0B9B00011CED4C70F7EF1F70E61E80E3AB
:010BA800222A
:100787007F4C120C2B120C4D7F48120C2B120A2295
:10079700758911E4F58CF58A758DF8758B30D2A9BA
:1007A700D2ABD28ED2AFC2A3120A8EE4852725F52B
:1007B70024F523F52285264FF54EF54DF54C852575
:1007C70058852457852356852255AF4FAE4EAD4DDC
:1007D700AC4C1202FDE5282445603E24FD601F2431
:1007E700E3602B24FD600F24F3601C24FE601414C7
:1007F7007033D2A3802FE4F51C7550018027E4F5F0
:10080700508022D2A0801E751C017D028010751CAD
:1008170001C2A3C2A07D038005751C017D047F82F0
:100827007E00120C9CE550640160030207AF1204BE
:07083700B8120C5B0207AFD1
:03000B00020008E8
:03000800D20832E9
:03001B000208CA0E
:1008CA00C0E0C0F0C083C082C0D075D000C000C0F4
:1008DA0001C002C003C004C005C006C007E51C7001
:1008EA000B758DF8758B301209E4801E758DFE75B7
:1008FA008B30E51AC3951B5004D2808002C2800552
:10090A001AE51A75F0288485F01AD007D006D005A2
:10091A00D004D003D002D001D000D0D0D082D0836E
:05092A00D0F0D0E03226
:0802FD008F548E538D528C5179
:10030500E47F5AFEFDFCAB54AA53A952A851D3125F
:1003150002CC4038E47F96FEFDFCA8511202CC5079
:100325002BE47F64FEFDFCAB58AA57A956A85512CD
:1003350002CC4018E47F8CFEFDFCA8551202CC507F
:100345000B7DFF7FFF120B4DD2818050E47F5AFE5B
:10035500FDFCAB54AA53A952A851C31202CC505369
:10036500E47F50FEFDFCAB58AA57A956A8551202CA
:10037500CC4040E47FA0FEFDFCA8551202CC5033D2
:10038500E47F14FEFDFCAB54AA53A952A8511202F6
:10039500CC40107D147F14120B4DC281D282D283C2
:1003A500D284227D237F23120B4DC281D282D28338
:1003B500C28422E47F96FEFDFCAB54AA53A952A841
:1003C50051D31202CC4052E47F50FEFDFCAB58AA3B
:1003D50057A956A855D31202CC403EE47FA0FEFD96
:1003E500FCA8551202CC5031E47FE6FEFDFCAB546F
:1003F500AA53A952A851C31202CC500D7D147F14E3
:10040500120B4DD281D282800B7D237F23120B4D9F
:10041500D281C282C283D28422E47F64FEFDFCAB1A
:1004250058AA57A956A855C31202CC5038E47F06DE
:10043500FEFDFCA855C31202CC500DC281D282C26A
:1004450083D2847D0FE48066C281D282C283D28446
:10045500855819855718855617855516E5192405A4
:10046500F559FD8049E47FFAFEFDFCAB58AA57A972
:1004750056A855D31202CC400DD281C282D283C276
:1004850084D281E48027D281C282D283C284D28180
:10049500C374229558F51974019557F518E49556C6
:1004A500F517E49555F516E5192405F559FDFF12DF
:0204B5000B4DED
:0104B7002222
:100BA900D3EF9400EE940040147D7C7C15ED1D700C
:0D0BB900011CED4C70F7EF1F70E61E80E38D
:010BC600220C
:0B0C9100C28E758DFE758B30D28E2256
:0B0C9C00120C918D1BE4F51A020BA94D
:0B0CA700120C918D1BE4F51A020BA942
:1006CA008F5AE55A64017038AF8CEFFEAD8A7C0010
:1006DA00E42DF513EC3EF512E4F58CF58AAC12AD77
:1006EA00131201C97B9A7A9979D9783F12001EE4CC
:1006FA00FBFA79C878421201271202028E088F0982
:10070A00E55A64027038AF8CEFFEAD8A7C00E42DA6
:10071A00F513EC3EF512E4F58CF58AAC12AD131222
:10072A0001C97B9A7A9979D9783F12001EE4FBFABB
:10073A0079C878421201271202028E0A8F0BE55AF3
:10074A0064037038AF8CEFFEAD8A7C00E42DF5139C
:10075A00EC3EF512E4F58CF58AAC12AD131201C920
:10076A007B9A7A9979D9783F12001EE4FBFA79C804
:0D077A0078421201271202028E0C8F0D2210
:10092F00EF64017019D29200000000000000000077
:10093F00000000000000000000000000C292EF6401
:10094F00027019D2A2000000000000000000000099
:10095F0000000000000000000000C2A2EF6403705E
:10096F0019D2A700000000000000000000000000E6
:0B097F000000000000000000C2A722E2
:1005F2007555A07554867553017552007559A075CD
:10060200588675570175560020910D785274FF1265
:1006120002DFEC4D4E4F70F0D28C30910D78567453
:10062200FF1202DFEC4D4E4F70F0C28C7555A07573
:1006320054867553017552007559A07558867557C1
:10064200017556007F011206CA20A10D785274FF6F
:100652001202DFEC4D4E4F70F0D28C30A10D785665
:1006620074FF1202DFEC4D4E4F70F0C28C7555A034
:100672007554867553017552007559A07558867563
:1006820057017556007F021206CA20A60D785274D1
:10069200FF1202DFEC4D4E4F70F0D28C30A60D7877
:1006A2005674FF1202DFEC4D4E4F70F0C28CE475AF
:1006B2005530755475F553F552755930755875F5B1
:0806C20057F5567F030206CA3A
:1009E4000511E51170020510C39410E51094004040
:1009F40005E4F510F511E5116405451070057F0156
:100A040012092FE511640A451070057F0212092F9F
:0E0A1400E511640F451070057F0312092F22B3
:1004B8001205F2120C5BD3E5099417E50894005075
:1004C80017E50B941EE50A9400400DE50D941EE512
:1004D8000C94005003120C77C3E5099417E50894AF
:1004E800005018C3E50B941EE50A9400500DE50D65
:1004F800941EE50C94004003120BC7C3E50994173A
:10050800E50894005031E50B9414E50A940040275F
:10051800D3E50D9414E50C9400401CD3E50B950D20
:10052800E50A950C4003120BC7C3E50B950DE50AC8
:10053800950C5003120C77D3E509941EE508940036
:100548004018D3E50B941EE50A9400400DE50D9480
:1005580014E50C94005003120CB2D3E509941EE57F
:100568000894004017E50B9414E50A9400500DE533
:100578000D941EE50C94004003120BF3055130B5A1
:100588000630B60320B754E4F515E515704D20B5CF
:100598000920B60620B70312098A20B50620B7033A
:1005A80012098A30B50920B60630B703120C692043
:1005B800B50930B60630B703120B6A30B50930B644
:1005C8000620B703120B20E50EB402BEE50FB402F5
:1005D800B9120C06E4F50EF50F80AFE5516405601D
:0905E800030204B8F551120C5B8A
:0105F10022E7
:040B49007D387F3242
:100B4D00E4F5D8F5E9F5F975D9028FEA8FFA75DA7A
:0D0B5D0042AF058FEB8FFB75DB42D2DE222D
:0F0AF100120B00D281C282C283D2847F017E00A9
:100B0000E4FDFCC3ED9FEC9E5015E4FBFA0BBB002B
:0F0B1000010AEB64784A70F50DBD00010C80E41A
:010B1F0022B3
:100BC700C281D282D283C284120AFC7D427F3C1248
:090BD7000B4D7F687E10020B003B
:0D0C7700120AF4120B497FE47E0C020B0000
:0D0C8400120AF4120B497FC87E19020B0002
:0E0C5B00C281D282120AF87D4C7F46020B4DF8
:100BF300C281D282D283C284120AFC120B497F0AB9
:030C0300020B00E1
:0B0CB200120AF4120B497F0A020B002B
:0E0C6900C281D282120AF87D627F62020B4DB8
:100C0600C281D282120AF87D627F62120B4D7F96F4
:030C1600020B00CE
:100B6A00120AF4050EE50EC394024003750E027DC7
:100B7A004B7F4B120B4D30B5077D577F57120B4DEC
:010B8A002248
:100B2000C281D282D283C284120AFC050FE50FC3B0
:100B300094024003750F027D4B7F4B120B4D30B773
:090B4000077D577F57120B4D226F
:10098A00D281D282D283D2847F887E13120B00D284
:10099A0081C282D283C284120AFC7D627F62120BF8
:1009AA004D7F947E11120AF1120B497F8A7E1B1227
:1009BA000B00D281D282D283D284D2A37F107E2727
:1009CA00120B00C2A37FD07E07120AF1120B497FD5
:0A09DA00647E19120B00751501224E
:10001E00EC4D6011E8497017ED33EC3304600DE4DC
:10002E00FCFFFEFD22E933E8330470F802026E1283
:10003E00023958046009E4CC248150062850090284
:10004E000278284003020275C0E0EB4A7044B98082
:10005E0006D0E0FB020264EF4E701CBD8008EBFF81
:10006E00EAFEE9FD80EBE98DF0A4FEE5F002010762
:10007E00E9CDF9EAFEEBFFEF89F0A4FCE5F0CE89BD
:10008E00F0A42EFFE435F0CD89F0A42DFEE435F07A
:10009E008067EF4E7005BD80D780C3EF8BF0A4ACA8
:1000AE00F0EE8BF0A42CFCE435F0F8EF8AF0A42CE3
:1000BE00E5F038FCE433CB8DF0A42CFCE5F03BF8F6
:1000CE00EE8AF0A42CFCE5F038F8E433CF89F0A4E6
:1000DE002CFCE5F038CF3400CE89F0A42FFFE5F0EC
:1000EE003EFEE433C98DF0A42EFEE5F039CD8AF044
:1000FE00A42FFFE5F03EFEE43DFD33D0E0FB5007BC
:10010E000BBB000F020278EC2CFCEF33FFEE33FE3C
:06011E00ED33FD0202506A
:10012400020278EC5D046005E85904700302026E73
:10013400120239580460F6EC4860F2EC7004FDFEDB
:10014400FF22C860DB2481C85009C39860025006AE
:100154000202759850CAF582E9294B4A7005AB82B0
:1001640002026475F0007C1A7880C3EF9BEE9AED6E
:1001740099400DC3EF9BFFEE9AFEED99FDE842F026
:10018400DC23ACF0D0E0FFD0E0FED0E0FDAB822079
:10019400E7101BEB60BAEC2CFCEF33FFEE33FEED03
:1001A40033FD020250E803F830E705C0F075F000B3
:1001B400EF2FFFEE33FEED33FD40B830E7C280AAE7
:1001C40075F020800E75F010800575F0087D007EB6
:1001D400007F003392D530D5031202BEEC334010B9
:1001E400EF33FFEE33FEED33FDEC33FCD5F0ED22BF
:0E01F400E5F0247EA2D513CC92E7CDCEFF22FB
:10020200EDD2E7CD33EC3392D524814006E4FFFEF4
:10021200FDFC22FCE4CFCECDCC24E0501174FF8053
:10022200EDC3CC13CCCD13CDCE13CECF13CF0470F0
:07023200F030D5DE0202BE30
:10023900E9D2E7C933E833F892D5EDD2E7CD33EC0B
:0702490033FC5002B2D52284
:10025000EC30E7100FBF000C0EBE00080DBD00040F
:100260000BEB6014A2D5EB13FCED92E7FD2274FFBB
:10027000FCFDFEFF22E480F8A2D574FF13FC7D8014
:03028000E480EF28
:0300000002083EB5
:0C083E00787FE4F6D8FD75815A02088529
:10028300BB010689828A83E0225002E722BBFE0279
:09029300E32289828A83E49322AC
:10029C00F8BB010DE58229F582E5833AF583E8F098
:1002AC00225006E92582C8F622BBFE05E92582C844
:0202BC00F2222C
:0E02BE00C3E49FFFE49EFEE49DFDE49CFC2251
:1002CC00EB9FF5F0EA9E42F0E99D42F0E89C45F088
:0102DC0022FF
:1002DD007401FF3395E0FEFDFC080808E6CF2FF60C
:1002ED0018E6CE3EF618E6CD3DF618E6CC3CF622E5
:10084A00020787E493A3F8E493A34003F68001F236
:10085A0008DFF48029E493A3F85407240CC8C333AF
:10086A00C4540F4420C8834004F456800146F6DF7E
:10087A00E4800B0102040810204080900CBDE47E45
:10088A00019360BCA3FF543F30E509541FFEE49373
:10089A00A360010ECF54C025E060A840B8E493A33A
:1008AA00FAE493A3F8E493A3C8C582C8CAC583CA65
:1008BA00F0A3C8C582C8CAC583CADFE9DEE780BE1D
:010CBF000034
:00000001FF
