:10003900D3EF9400EE940040147D7C7C15ED1D7087
:0D004900011CED4C70F7EF1F70E61E80E308
:010056002287
:0F00720075890175A882758CFE758A30D28C2233
:03000B0002000EE2
:10000E00C0E0C0F0C0D0758CFE758A30E508C3958F
:10001E00095004D2818002C2810508E50875F028D6
:0B002E008485F008D0D0D0F0D0E03284
:100057008F828E831200728D09E4F5081200398BA6
:0B00670009E4F508AF82AE8302003907
:0D0081007B047D027F827E0012005780F319
:0300000002008E6D
:0C008E00787FE4F6D8FD7581090200813E
:00000001FF
