:0C008D00D281C282C283D2847F017E0037
:10009900E4FDFCC3ED9FEC9E5015E4FBFA0BBB009D
:0F00A900010AEB64784A70F50DBD00010C80E48C
:0100B8002225
:1000B900E4F5D8F5E9F5F975D9028FEA8FFA75DA19
:0D00C90042AF058FEB8FFB75DB42D2DE22CC
:0E010800C281D2821200917D627F620200B934
:1000F30012008D7D4B7F4B1200B930B5077D577FC2
:05010300571200B922B3
:1000D600C281D282D283C2841200957D4B7F4B129D
:0D00E60000B930B7077D577F571200B922CF
:10000300D281D282D283D2847F887E13120099D286
:1000130081C282D283C2841200957D627F62120004
:10002300B97F947E1112009912008D7D387F3212B0
:1000330000B97F8A7E1B120099D281D282D283D2E9
:0D00430084D2A37F107E27120099C2A32251
:10005000C2A320B50920B60620B70312000320B5BD
:100060000620B70312000330B50920B60630B703E7
:1000700012010820B50930B60630B7031200F3307C
:0D008000B5D030B6CD20B7CA1200D680C56D
:03000000020116E4
:0C011600787FE4F6D8FD758107020050E8
:00000001FF
