:10024800011C00012000020C00000E0E2020546842
:0A025800616E6B20796F75202000A5
:070223001202637F147E004C
:10022A00D3EF9400EE940040147D0A7C00ED1D701B
:0D023A00011CED4C70F7EF1F70E61E80E315
:010247002294
:10027C008F1EE51ED39400400A751F7DD51FFD15FA
:04028C001E80EF22BF
:100263008F80C2B5C2B47F0A7E0012022AD2B47F45
:090273000A7E0012022AC2B42224
:03000E002430FF9C
:100011008F80D2B5C2B47F0A7E0012022AD2B47F89
:090021000A7E0012022AC2B42278
:1001ED00C2B67F381202237F0F1202237F0612023E
:1001FD00237F01120223758902758CFF758AFFD248
:10020D008CD2A9D2AF759D01E4F5BDE51C4488F5EE
:06021D00BC7F0202027C1E
:10002E001201ED75A8A2750C0085080DC2B2D2B3EF
:10003E00D2B7E51DC3940A5008851D09750A1080B4
:10004E0018E51DC394645016E51D75F00A84F50974
:10005E00E51D75F00A8485F00A750B10802AC3E53C
:10006E001D94E874809483501FE51D75F06484F52B
:10007E0009E51D75F06484E5F075F00A84F50AE56E
:10008E001D75F00A8485F00B7F801202237F731298
:10009E0000117F701200117F651200117F65120032
:1000AE00117F641200117F3D120011E50912000E3E
:1000BE00E50A12000EE50B2430FF12001112022683
:1000CE007FC0120223E4FBEBC3940D400302003405
:0F00DE00740E2BF8E6FF1200111202260B80E8B9
:03002B000202903E
:10029000C0E075BC0085BD1D751C00E51C4488F5DB
:0402A000BCD0E032BC
:03000B0002017976
:10017900C0E0C0D0758CD2758AD20520E51DC39424
:10018900B4501DC2B3D2B2851D08E520B4B40375BD
:100199002000C3E520950DE4950C5006C2B78002F6
:1001A900D2B7E51DC394B4400DE51DD394C85006DC
:1001B900C2B7C2B3C2B2E51DD394C84022C2B2D2FB
:1001C900B3E51D2438F508E520B43703752000C3CD
:1001D900E520950DE4950C5004D2B78002C2B7D042
:0401E900D0D0E03260
:030000000200ED0E
:0C00ED00787FE4F6D8FD75812002013414
:1000F90002002EE493A3F8E493A34003F68001F2EF
:1001090008DFF48029E493A3F85407240CC8C33307
:10011900C4540F4420C8834004F456800146F6DFD6
:10012900E4800B0102040810204080900248E47E1C
:10013900019360BCA3FF543F30E509541FFEE493CB
:10014900A360010ECF54C025E060A840B8E493A392
:10015900FAE493A3F8E493A3C8C582C8CAC583CABD
:10016900F0A3C8C582C8CAC583CADFE9DEE780BE75
:01026200009B
:00000001FF
