:10034E007F481205011205231203147F0A7E001244
:10035E00046175A8A01203F01201C912024E120018
:10036E00037F147E001204807B007A007929120428
:09037E00BC12043EEF60E180F8BE
:03002B000202CD01
:0D02CD00C0E0C0F0C083C082C0D075D00872
:1002DA0075BC00E510700685BD29852927E510B48F
:1002EA00010685BD2A852A280510E510D394014008
:0F02FA00087510001203878F2BE5104488F5BCA0
:0B030900D0D0D082D083D0F0D0E03202
:07054E00052E3443101001DB
:10046100EF1FAA0670011E4A60147C007DC8D3EDFF
:0E0471009400EC940040E9ED1D70F31C80F047
:01047F00225A
:10050100EF24B460082404700775CED02275CED1D3
:0105110022C7
:10051200C2928FCFE5CD30E7FB75CD80D292AFCFBF
:0105220022B6
:100523007F027E00120461C292D293C297D29422B8
:0C054100C293120512E4FF120512D293BF
:01054D00228B
:0204EE00AE0559
:1004F000C293120512AD07AF06120512D293AF05D3
:0105000022D8
:0603BE008B128A13891462
:1003C400C293120512AE07E4FDEDC395155018ABA8
:1003D400120514E514AA137002051314F91201246A
:0B03E400FF1205120D80E2D293AF065D
:0103EF0022EB
:10031400C2927B007A00792E7515057F301203BED8
:100324007B007A00792E7515057F2A1203BE7D2085
:100334007F251204EE7D0F7F261204EE7D017F21BE
:0A0344001204EE7D017F220204EE98
:1004BC0075150A7FA01203BE7D0A7F241204EE7DFF
:0904CC000A7F201204EED29222F4
:10043E007F071205418F202005033004137DFF7FB7
:10044E00271204EEC2937FE1120512D2937F00228F
:03045E007F0122F9
:0E05330020205468616E6B20796F75202000C7
:070419001204D57F147E00E0
:10042000D3EF9400EE940040147D0A7C00ED1D7023
:0D043000011CED4C70F7EF1F70E61E80E31D
:01043D00229C
:10048000D3EF9400EE940040147D7D7C00ED1D7050
:0D049000011CED4C70F7EF1F70E61E80E3BD
:01049D00223C
:1004D5008F80C2B5C2B47F0A7E00120420D2B47FD9
:0904E5000A7E00120420C2B422B8
:05049E00E5222430FFFF
:1004A3008F80D2B5C2B47F0A7E00120420D2B47FFB
:0904B3000A7E00120420C2B422EA
:1003F000C2B67F381204197F0F1204197F06120447
:10040000197F01120419759D03E4F5BDE5114488B7
:09041000F5BC7F027E00020480AD
:1001C900852821E528D394914006E528246FF52157
:1001D900E528C3946E400AE528D394915003E4F5C9
:1001E90021E528C3946E5007C3746E9528F521E55F
:1001F90021C3940A50088521227523108018E5210E
:10020900C394645015E52175F00A84F522E521753A
:10021900F00A8485F02375241022C3E52194E8743B
:10022900809483501FE52175F06484F522E52175DA
:10023900F06484E5F075F00A84F523E52175F00A88
:050249008485F0242271
:10024E0078117C007D007BFF7A0579337E007F0E6E
:10025E001200FE7F801204197F731204A37F7012A6
:10026E0004A37F651204A37F651204A37F641204A6
:10027E00A37F3D1204A3E521D39464400F12049E84
:10028E00E5232430FF1204A3E524800A7F1F120405
:10029E00A312049EE5232430FF1204A37FC87E0020
:1002AE001204207FC0120419E4FB74112BF8E6FF30
:0E02BE001204A37FC87E001204200BBB0DECBF
:0102CC00220F
:1003870075A00FE5A0540F640F60287F057E00124B
:100397000480E5A0540F640F6019E5A0540FFAEB31
:1003A70044F0F5A0E5A054F0FBE5A054F0FFBFF042
:0603B700F88000EB2AFFB4
:0103BD00221D
:10000300E528D394BE4004C2B78002D2B7E527C324
:1000130094325003C2B322E527D394BE4003C2B245
:0600230022D2B2D2B3228A
:0300000002013DBD
:0C013D00787FE4F6D8FD75813202018461
:10002E00E709F608DFFA8046E709F208DFFA803EB4
:10003E0088828C83E709F0A3DFFA8032E309F608A1
:10004E00DFFA8078E309F208DFFA807088828C8309
:10005E00E309F0A3DFFA806489828A83E0A3F608BD
:10006E00DFFA805889828A83E0A3F208DFFA804C97
:10007E0080D280FA80C680D4806980F2803380106E
:10008E0080A680EA809A80A880DA80E280CA8033D7
:10009E0089828A83ECFAE493A3C8C582C8CCC5834F
:1000AE00CCF0A3C8C582C8CCC583CCDFE9DEE7801F
:1000BE000D89828A83E493A3F608DFF9ECFAA9F09E
:1000CE00EDFB2289828A83ECFAE0A3C8C582C8CCF4
:1000DE00C583CCF0A3C8C582C8CCC583CCDFEADE0D
:1000EE00E880DB89828A83E493A3F208DFF980CC6F
:1000FE0088F0EF60010E4E60C388F0ED2402B40468
:10010E000050B9F582EB2402B4040050AF2323450E
:06011E00822390007E73B5
:10012400BB010689828A83E0225002E722BBFE02D9
:09013400E32289828A83E493220C
:1001490002034EE493A3F8E493A34003F68001F27B
:1001590008DFF48029E493A3F85407240CC8C333B7
:10016900C4540F4420C8834004F456800146F6DF86
:10017900E4800B010204081020408090054EE47EC3
:10018900019360BCA3FF543F30E509541FFEE4937B
:10019900A360010ECF54C025E060A840B8E493A342
:1001A900FAE493A3F8E493A3C8C582C8CAC583CA6D
:1001B900F0A3C8C582C8CAC583CADFE9DEE780BE25
:0105550000A5
:00000001FF
